:100000000C9437000C945F000C945F000C945F001C
:100010000C945F000C945F000C945F000C945F00E4
:100020000C945F000C945F000C945F000C945F00D4
:100030000C945F000C945F000C945F000C945F00C4
:100040000C94D0010C945F000C9420040C94520486
:100050000C945F000C945F000C945F000C945F00A4
:100060000C945F000C945F00A4008204A80011248B
:100070001FBECFEFD8E0DEBFCDBF12E0A0E0B1E001
:10008000E8E8FBE002C005900D92A235B107D9F770
:1000900027E0A2E5B2E001C01D92A13BB207E1F763
:1000A00010E0CCE6D0E004C02297FE010E94B30528
:1000B000C836D107C9F70E94C6040C94B7050C9442
:1000C000000040ED57E060E070E084ED96E00E94B3
:1000D000D70020E032EC41E050E064E177E084EDCD
:1000E00096E00E94EA0084ED96E00E94D40061E868
:1000F00071E080910507909106070E9413056AE060
:1001000070E080E090E00E94490241E060E084ED10
:1001100096E00E94550126E040E052EC61E070E07C
:1001200084E197E00C94BE03809100010E94BE021E
:1001300097FD03969595879595958795809352029F
:1001400083E592E00C94C60183E592E00C94700183
:1001500083E592E00C9490010F931F93CF93DF936C
:10016000EC01662359F00E941A0269837A838B831B
:100170009C83DF91CF911F910F9108950E941A02E5
:1001800009811A812B813C81601B710B820B930BBF
:10019000613271058105910530F763E070E080E020
:1001A00090E00E944902EACF60E00C94AC00FC01B0
:1001B00013AA14AA15AA16AA1182128213821482F3
:1001C000411551056105710521F0CB01BA010C946F
:1001D00049020895FB01BA01A901DC01D296FC9302
:1001E000EE93D19726E0CF010C94BE031F93CF93DB
:1001F000DF93EC01162F63E971E089A99AA90E94A7
:1002000013054AE050E0612F89A99AA90E94870549
:100210006AE971E089A99AA90E94130562E370E076
:1002200080E090E0DF91CF911F910C9449021F93E1
:10023000CF93DF93EC01162F8D81882389F189A953
:100240009AA9DC01ED91FC910480F581E02D0995DE
:10025000892BA9F307C02637310519F12835310557
:1002600009F41D8289A99AA9DC01ED91FC91048011
:10027000F581E02D09951816190694F489A99AA913
:10028000DC01ED91FC910680F781E02D09959C0140
:10029000332723363105F9F6612FCE010E94F6008F
:1002A00083E6DF91CF911F9108950F931F93CF9312
:1002B000DF931F92CDB7DEB78C01662349F081E052
:1002C000F801858360E0C80149830E9417014981D4
:1002D000F80145830F90DF91CF911F910F91089501
:1002E0002EE7E3E0F1E0DC0101900D922A95E1F7C1
:1002F000FC01E258FB4F1082319610823196108239
:1003000020E030E0FC01E20FF31FE258FF4F1182C2
:1003100010822E5F3F4F211544E0340799F708956E
:100320000895EC016BEE71E084E197E00E941905FD
:1003300010926E0085EE80937A0087E480937C00B3
:10034000F89420E030E095EF80917A0084FFFCCFB4
:1003500090937A00409178008091790050E0582B7A
:100360005250220F331F2C0F3D1FF901E258FF4F4F
:1003700026E0440F551F2A95E1F720813181240F93
:10038000351F3183208322E030E0DECFEC016CEFBB
:1003900071E084E197E00E941905CE010E9491016D
:1003A0001F920F920FB60F9211242F933F938F93AA
:1003B0009F93AF93BF9380910C0790910D07A091ED
:1003C0000E07B0910F0730910B0723E0230F2D3755
:1003D00020F40196A11DB11D05C026E8230F029649
:1003E000A11DB11D20930B0780930C0790930D075F
:1003F000A0930E07B0930F078091100790911107FB
:10040000A0911207B09113070196A11DB11D809311
:10041000100790931107A0931207B0931307BF9191
:10042000AF919F918F913F912F910F900FBE0F90A1
:100430001F9018952FB7F89460910C0770910D07D5
:1004400080910E0790910F072FBF08953FB7F89442
:100450008091100790911107A0911207B091130796
:1004600026B5A89B05C02F3F19F00196A11DB11D0F
:100470003FBF6627782F892F9A2F620F711D811D2C
:10048000911D42E0660F771F881F991F4A95D1F78B
:1004900008958F929F92AF92BF92CF92DF92EF9288
:1004A000FF926B017C010E9426024B015C01C1148A
:1004B000D104E104F104F1F00E948E050E942602AD
:1004C000681979098A099B09683E7340810591057D
:1004D00070F321E0C21AD108E108F10888EE880E15
:1004E00083E0981EA11CB11CC114D104E104F104E5
:1004F00029F7DDCFFF90EF90DF90CF90BF90AF90C6
:100500009F908F900895789484B5826084BD84B55F
:10051000816084BD85B5826085BD85B5816085BDFE
:10052000EEE6F0E0808181608083E1E8F0E0108217
:10053000808182608083808181608083E0E8F0E058
:10054000808181608083E1EBF0E080818460808342
:10055000E0EBF0E0808181608083EAE7F0E0808179
:1005600084608083808182608083808181608083D9
:100570008081806880831092C10008958E3008F0D9
:100580008E5087702091020190E4299F90011124E0
:10059000822B80937C0080917A00806480937A0023
:1005A00080917A0086FDFCCF8091780020917900BF
:1005B00090E0922B0895FC01818D228D90E0805C6B
:1005C0009F4F821B91098F7399270895FC01918D8C
:1005D000828D981731F0828DE80FF11D858D90E0A6
:1005E00008958FEF9FEF0895FC01918D828D9817EC
:1005F00061F0828DDF01A80FB11D5D968C91928D07
:100600009F5F9F73928F90E008958FEF9FEF089503
:1006100088E794E0892B49F080E090E0892B29F06D
:100620000E94780481110C9400000895FC01848DCF
:10063000DF01A80FB11DA35ABF4F2C91848D90E00C
:1006400001968F739927848FA689B7892C93A089E7
:10065000B1898C9180648C93938D848D981306C09E
:100660000288F389E02D80818F7D80830895CF9368
:10067000DF93EC01888D8823C9F0EA89FB898081AA
:1006800085FD05C0A889B9898C9186FD0FC00FB67C
:1006900007FCF5CF808185FFF2CFA889B9898C91BD
:1006A00085FFEDCFCE010E941603E7CFDF91CF91FA
:1006B0000895CF92DF92FF920F931F93CF93DF9312
:1006C0001F92CDB7DEB76C0181E0D60158968C93AE
:1006D00058975B969C915B975C968C915C9798136E
:1006E00007C05096ED91FC915197808185FD2EC0F9
:1006F000F601038D10E00F5F1F4F0F731127F02ECF
:10070000F601848DF81211C00FB607FCF9CFD6019F
:100710005096ED91FC915197808185FFF1CFC601F4
:1007200069830E9416036981EBCF838DE80FF11D69
:10073000E35AFF4F6083D6015B960C935B9752960A
:10074000ED91FC915397808180620CC0D601569642
:10075000ED91FC91579760835096ED91FC915197E4
:1007600080818064808381E090E00F90DF91CF9161
:100770001F910F91FF90DF90CF900895BF92CF927D
:10078000DF92EF92FF92CF93DF93EC016A017B013E
:10079000B22EE889F98982E08083411581EE5807FD
:1007A00061057105A1F060E079E08DE390E0A701BB
:1007B00096010E948F052150310941095109569532
:1007C000479537952795211580E1380798F0E889F6
:1007D000F989108260E874E88EE190E0A701960143
:1007E0000E948F05215031094109510956954795BD
:1007F00037952795EC85FD853083EE85FF85208331
:10080000188EEC89FD89B082EA89FB89808180613C
:100810008083EA89FB89808188608083EA89FB89FB
:10082000808180688083EA89FB8980818F7D8083D5
:10083000DF91CF91FF90EF90DF90CF90BF90089520
:100840001F920F920FB60F9211242F938F939F93A5
:10085000EF93FF93E0912407F09125078081E091C9
:100860002A07F0912B0782FD12C0908180912D07FD
:100870008F5F8F7320912E07821751F0E0912D0723
:10088000F0E0EC5EF84F958F80932D0701C08081DA
:10089000FF91EF919F918F912F910F900FBE0F902D
:1008A0001F9018951F920F920FB60F9211242F933D
:1008B0003F934F935F936F937F938F939F93AF93E8
:1008C000BF93EF93FF9384E197E00E941603FF919B
:1008D000EF91BF91AF919F918F917F916F915F91B8
:1008E0004F913F912F910F900FBE0F901F90189531
:1008F00084E197E00E94DB0221E0892B09F420E0EB
:10090000822F0895109217071092160788EE93E031
:10091000A0E0B0E08093180790931907A0931A07FE
:10092000B0931B0789E392E0909315078093140717
:1009300085EC90E0909321078093200784EC90E071
:10094000909323078093220780EC90E090932507F3
:100950008093240781EC90E09093270780932607EB
:1009600082EC90E0909329078093280786EC90E032
:1009700090932B0780932A0710922D0710922E0731
:1009800010922F0710923007089508950E94830255
:100990000E94C5040E946100C8E0D3E00E94940058
:1009A0002097E1F30E940803F9CFCF92DF92EF92F4
:1009B000FF920F931F93CF93DF937C016A01EB01AA
:1009C00000E010E00C151D0571F06991D701ED9163
:1009D000FC910190F081E02DC7010995892B19F058
:1009E0000F5F1F4FEFCFC801DF91CF911F910F9184
:1009F000FF90EF90DF90CF9008956115710581F021
:100A0000DB010D900020E9F7AD0141505109461B73
:100A1000570BDC01ED91FC910280F381E02D0994EC
:100A200080E090E008950C94FD0460EA71E00C947D
:100A3000FD040F931F93CF93DF93EC010E94FD04FD
:100A40008C01CE010E941505800F911FDF91CF917F
:100A50001F910F9108958F929F92AF92BF92DF9254
:100A6000EF92FF920F931F93CF93DF93CDB7DEB733
:100A7000A1970FB6F894DEBF0FBECDBF7C01F42F57
:100A8000D52ECB0119A2223008F42AE08E010F5D89
:100A90001F4F822E912CA12CB12C6F2F7D2DA501E3
:100AA00094010E948F05F22FD32ECA010150110923
:100AB0006A3014F4E0E301C0E7E3E60FD801EC93F9
:100AC000232B242B252B49F7B801C7010E94FD04D5
:100AD000A1960FB6F894DEBF0FBECDBFDF91CF91C8
:100AE0001F910F91FF90EF90DF90BF90AF909F907C
:100AF0008F9008952115310541F4DC01ED91FC91B1
:100B00000190F081E02D642F09940C942B059A013B
:100B1000462F50E060E070E00C947A050895A1E261
:100B20001A2EAA1BBB1BFD010DC0AA1FBB1FEE1F67
:100B3000FF1FA217B307E407F50720F0A21BB30BB2
:100B4000E40BF50B661F771F881F991F1A9469F72E
:100B500060957095809590959B01AC01BD01CF018A
:100B60000895EE0FFF1F0590F491E02D099410E019
:100B7000CCE6D0E004C0FE010E94B3052296CE363A
:080B8000D107C9F7F894FFCF7B
:100B88001500014135353828252D44646435261370
:100B980018283F441300261E3744441E08202513F6
:100BA8003B2B1B08261925413B2600101800331E35
:100BB8001821131B00081B002B18251B2C2529089E
:100BC8001E001B1B1926211900131B2010130823B4
:100BD800101010001B00271E2620212B08102100B2
:100BE8000019181E1B1908001300131E13101908EA
:100BF800101E2310001313130820182608001E00C7
:100C080000564D4450565F317C315F564D44505626
:100C18000D0A00564D4450435F005F564D44504303
:100C28000D0A004572726F723A20417474656D70D6
:100C38007420746F20736574206120726561642D5F
:100C48006F6E6C79207661726961626C65206F7273
:100C580020646174612074797065206E6F742073EC
:100C68007570706F727465640D0A00677261624412
:100C78006174612043616C6C65642E004920636176
:100C88006C6C656420646F436F6D7061726520439E
:100C9800616C6C65642E006666742043616C6C65DB
:100CA800642E007072696E74446174612043616CD3
:100CB8006C65642E00000000005903D504DB02F4C3
:100CC80002E60237036E616E00696E66006F766633
:020CD80000001A
:00000001FF
