:100000000C940B040C9433040C9433040C943304BC
:100010000C9433040C9433040C9433040C94330484
:100020000C9433040C9433040C9433040C94330474
:100030000C9433040C9433040C9433040C94330464
:100040000C94C4080C9433040C94140B0C94460BBD
:100050000C9433040C9433040C9433040C94330444
:100060000C9433040C9433040000050014002D009C
:1000700050007C00B300F3003D019101EF015602F6
:10008000C7024103C5035204E90488053106E306AB
:100090009D0761082D09010ADE0AC30BB10CA60DEC
:1000A000A30EA80FB410C811E21204142D155C168B
:1000B0009217CE18101A581BA61CF91D521FAF20FC
:1000C00012227923E5245426C8274029BB2A392C3B
:1000D000BB2D3F2FC6304F32DA336835F6368738BE
:1000E000183AAB3B3E3DD13E6540F9418C431F453C
:1000F000B1464248D1495F4BEC4C764EFE4F84519D
:100100000753875403567D57F258645AD25B3B5DC0
:10011000A05E00605B61B16202644C659266D1676B
:100120000A693C6A686B8D6CAC6DC36ED36FDC7012
:10013000DC71D672C773B07491756A763A770278BB
:10014000C1787779247AC87A647BF57B7E7CFD7CE4
:10015000737DDF7D417E9A7EE97E2E7F6A7F9B7F65
:10016000C37FE17FF57FFF7FFF7FF57FE17FC37F67
:100170009B7F6A7F2E7FE97E9A7E417EDF7D737D45
:10018000FD7C7E7CF57B647BC87A247A7779C178A4
:1001900002783A776A769175B074C773D672DC715B
:1001A000DC70D36FC36EAC6D8D6C686B3C6A0A6992
:1001B000D16792664C650264B1625B610060A05ECB
:1001C0003B5DD25B645AF2587D5703568754075300
:1001D0008451FE4F764EEC4C5F4BD1494248B146BC
:1001E0001F458C43F9416540D13E3E3DAB3B183A3B
:1001F0008738F6366835DA334F32C6303F2FBB2D9D
:10020000392CBB2A4029C8275426E52479231222F9
:10021000AF20521FF91DA61C581B101ACE1892179A
:100220005C162D150414E212C811B410A80FA30E09
:10023000A60DB10CC30BDE0A010A2D0961089D074A
:10024000E30631068805E9045204C5034103C702E9
:100250005602EF0191013D01F300B3007C00500014
:100260002D001400050000000000080D10131516E5
:1002700018191B1C1D1E1E1F20212122232324248C
:10028000252526262627272828282929292A2A2AF3
:100290002B2B2B2B2C2C2C2C2D2D2D2D2E2E2E2E96
:1002A0002E2F2F2F2F2F3030303030313131313150
:1002B0003132323232323232333333333333333416
:1002C00034343434343434353535353535353535E5
:1002D00036363636363636363637373737373737B7
:1002E000373737383838383838383838383839398F
:1002F000393939393939393939393A3A3A3A3A3A68
:100300003A3A3A3A3A3A3A3B3B3B3B3B3B3B3B3B44
:100310003B3B3B3B3B3B3C3C3C3C3C3C3C3C3C3C23
:100320003C3C3C3C3C3C3D3D3D3D3D3D3D3D3D3D03
:100330003D3D3D3D3D3D3D3E3E3E3E3E3E3E3E3EE4
:100340003E3E3E3E3E3E3E3E3E3F3F3F3F3F3F3FC6
:100350003F3F3F3F3F3F3F3F3F3F3F3F3F3F4040AB
:100360004040404040404040F00FF81FF42FFC3F19
:10037000F24FFA5FF66FFE7FF18FF99FF5AFFDBF89
:10038000F3CFFBDFF7EFE007E817E427EC37E247AE
:10039000EA57E667EE77E187E997E5A7EDB7E3C7A8
:1003A000EBD7D00BD81BD42BDC3BD24BDA5BD66B14
:1003B000DE7BD18BD99BD5ABDDBBD3CBC003C813C0
:1003C000C423CC33C243CA53C663CE73C183C9931B
:1003D000C5A3CDB3B00DB81DB42DBC3DB24DBA5DB3
:1003E000B66DBE7DB18DB99DB5ADA005A815A4258E
:1003F000AC35A245AA55A665AE75A185A99590090B
:10040000981994299C3992499A5996699E799189AB
:100410008001881184218C3182418A5186618E71DC
:10042000700E781E742E7C3E724E7A5E766E60067A
:10043000681664266C3662466A56500A581A542A60
:100440005C3A524A4002481244224C32300C381C6A
:10045000342C2004281410084276FC30825A825A28
:10046000FC30427604CF42767EA5825ABE89FC30AB
:100470008A7DF9184276FC306E6A1D47825A825A8C
:100480001D476E6AFC304276F9188A7D07E78A7D3F
:1004900004CF4276E3B86E6A7EA5825A92951D47D4
:1004A000BE89FC307682F918627F8C0C8A7DF9183F
:1004B0007D7A28254276FC30E370573C6E6A1D47F2
:1004C000F2623451825A825A3451F2621D476E6A86
:1004D000573CE370FC30427628257D7AF9188A7DF6
:1004E0008C0C627F74F3627F07E78A7DD8DA7D7AAD
:1004F00004CF4276A9C3E370E3B86E6ACCAEF26271
:100500007EA5825A0E9D345192951D471D8F573CF2
:10051000BE89FC30838528257682F9189E808C0C54
:10052000D97F4806627F8C0C9D7EC8128A7DF9189F
:100530002A7C1A1F7D7A282585781F2B4276FC306D
:10054000B673BA36E370573CCA6DCE416E6A1D472A
:10055000D066404CF2623451D75EF655825A825AC8
:10056000F655D75E3451F262404CD0661D476E6A34
:10057000CE41CA6D573CE370BA36B673FC30427652
:100580001F2B857828257D7A1A1F2A7CF9188A7DE9
:10059000C8129D7E8C0C627F4806D97FB8F9D97F3E
:1005A00074F3627F38ED9D7E07E78A7DE6E02A7C62
:1005B000D8DA7D7AE1D4857804CF427646C9B6731D
:1005C000A9C3E37032BECA6DE3B86E6AC0B3D06629
:1005D000CCAEF2620AAAD75E7EA5825A29A1F65550
:1005E0000E9D34513099404C92951D473692CE4124
:1005F0001D8F573C4A8CBA36BE89FC307B871F2B37
:1006000083852825D6831A1F7682F9186381C8123C
:100610009E808C0C27804806F67F2403D97F4806ED
:10062000A77F6B09627F8C0C0A7FAB0F9D7EC8127F
:100630001E7EE2158A7DF918E47C0C1C2A7C1A1FA8
:100640005D7B24227D7A28258A79272885781F2BAF
:100650006C77112E4276FC300575DF33B673BA36EF
:1006600055728D39E370573C5F6F173FCA6DCE41AD
:10067000246C7B446E6A1D47A768B449D066404C21
:10068000E964C04EF2623451EC609B53D75EF6557C
:10069000B45C4358825A825A4358B45CF655D75ECC
:1006A0009B53EC603451F262C04EE964404CD0661A
:1006B000B449A7681D476E6A7B44246CCE41CA6D5D
:1006C000173F5F6F573CE3708D395572BA36B6737A
:1006D000DF330575FC304276112E6C771F2B857841
:1006E00027288A7928257D7A24225D7B1A1F2A7C77
:1006F0000C1CE47CF9188A7DE2151E7EC8129D7ED2
:10070000AB0F0A7F8C0C627F6B09A77F4806D97FED
:100710002403F67FDCFCF67FB8F9D97F95F6A77F36
:1007200074F3627F55F00A7F38ED9D7E1EEA1E7ECF
:1007300007E78A7DF4E3E47CE6E02A7CDCDD5D7B90
:10074000D8DA7D7AD9D78A79E1D48578EFD16C77F8
:1007500004CF427621CC057546C9B67373C655726F
:10076000A9C3E370E9C05F6F32BECA6D85BB246C5C
:10077000E3B86E6A4CB6A768C0B3D06640B1E9640E
:10078000CCAEF26265ACEC600AAAD75EBDA7B45CE1
:100790007EA5825A4CA3435829A1F655149F9B531A
:1007A0000E9D3451179BC04E3099404C5997B44917
:1007B00092951D47DC937B443692CE41A190173F22
:1007C0001D8F573CAB8D8D394A8CBA36FB8ADF338F
:1007D000BE89FC309488112E7B871F2B76862728B4
:1007E00083852825A3842422D6831A1F1C830C1CEE
:1007F0007682F918E281E2156381C812F680AB0FA8
:100800009E808C0C59806B09278048060A8024033F
:100810008204760B860411241FBECFEFD8E0DEBF22
:10082000CDBF11E0A0E0B1E0E4E9F9E102C005903C
:100830000D92AE3FB107D9F729E0AEEFB1E001C0AC
:100840001D92AD3DB207E1F718E0C4E1D8E004C065
:100850002297FE010E94B90CC031D107C9F70E944E
:10086000BA0B0C94BD0C0C94000040ED57E060E016
:1008700070E080E894E00E94B50420E032EC41E0B2
:1008800050E060E479E080E894E00E94C80480E8E9
:1008900094E00E94B20463E871E08091B104909109
:1008A000B2040E94070C6AE070E080E090E00E94D1
:1008B0003D0941E060E080E894E00E94330526E0D5
:1008C00040E052EC61E070E080E499E00C94B20A00
:1008D000809102010E94B20997FD03969595879534
:1008E00095958795982F8093FE0180910101981727
:1008F00020F080910001891720F48FEF91E00C9493
:10090000C20808958FEF91E00C944E058FEF91E0AF
:100910000C945F050F931F93CF93DF93EC01662335
:1009200059F00E940E0969837A838B839C83DF913F
:10093000CF911F910F9108950E940E0909811A818C
:100940002B813C81601B710B820B930B6132710513
:100950008105910530F763E070E080E090E00E944F
:100960003D09EACF60E00C948A04FC0113AA14AAA2
:1009700015AA16AA118212821382148241155105FA
:100980006105710521F0CB01BA010C943D09089570
:10099000FB01BA01A901DC01D296FC93EE93D19739
:1009A00026E0CF010C94B20A1F93CF93DF93EC01A2
:1009B000162F65E971E089A99AA90E94070C4AE0FF
:1009C00050E0612F89A99AA90E94650C6CE971E039
:1009D00089A99AA90E94070C62E370E080E090E088
:1009E000DF91CF911F910C943D091F93CF93DF931B
:1009F000EC01162F8D81882389F189A99AA9DC0140
:100A0000ED91FC910480F581E02D0995892BA9F3E6
:100A100007C02637310519F12835310509F41D8243
:100A200089A99AA9DC01ED91FC910480F581E02D62
:100A300009951816190694F489A99AA9DC01ED9173
:100A4000FC910680F781E02D09959C013327233620
:100A50003105F9F6612FCE010E94D40483E6DF91BF
:100A6000CF911F9108950F931F93CF93DF931F9200
:100A7000CDB7DEB78C01662349F081E0F8018583AC
:100A800060E0C80149830E94F5044981F80145836B
:100A90000F90DF91CF911F910F9108952EE7E5E020
:100AA000F1E0DC0101900D922A95E1F7FC01E2589A
:100AB000FD4F10823196108231961082089508956C
:100AC000FC01E258FD4F2081820F911D820F911D84
:100AD000DC01A258BF4F11967C936E932F3F19F4FF
:100AE0001D921C9208952F5F20830895EF92FF922C
:100AF0000F931F93CF93DF939C01E2E0F0E00FEFA1
:100B000010E07C0181E8E81A8DEFF80AE901C0588D
:100B1000DD4FD901A258BF4F8D919C9111978F3B0A
:100B2000910594F012968D919C918B3A910564F009
:100B3000CF01B8010E946D0CD7018C939881981752
:100B400019F0888381E008C02E5F3F4F3196E13075
:100B5000B1E0FB07F1F680E0DF91CF911F910F919B
:100B6000FF90EF9008952F923F924F925F926F9275
:100B70007F928F929F92AF92BF92CF92DF92EF922D
:100B8000FF920F931F93CF93DF9300D0CDB7DEB7C3
:100B90009A83898310926E0085EE80937A0087E4B1
:100BA00080937C00F894E7EBF4E080917A0084FF76
:100BB000FCCF85EF80937A008091780020917900B6
:100BC00090E0922B925026E0880F991F2A95E1F72A
:100BD0009183808313821282349688E0E73BF80782
:100BE00021F72F923F924F925F92FF920F931F93A4
:100BF000CF93DF93C7EBD4E0E8E6F0E0FF2440E0DA
:100C00006591759108811981970320010E034F1C8E
:100C100010019E035F08300C411C5F1CF8035F0845
:100C2000300C411C5F1C4992599222964A9541F71B
:100C3000DF91CF911F910F91FF905F904F903F9068
:100C40002F9011242F923F924F925F926F927F923A
:100C50008F929F92CF93DF93E8E6F3E048E7A59168
:100C6000BB27AA0FBB1FAA0FBB1FA954BB4F2D90B8
:100C70003D904D905C90C591DD27CC0FDD1FCC0FD2
:100C8000DD1FC954DB4F69907990899098809C92C0
:100C90008E927E926E9258824A923A922A924A9507
:100CA000F1F6DF91CF919F908F907F906F905F9042
:100CB0004F903F902F902F923F924F925F926F9262
:100CC0007F928F929F92AF92BF92CF92DF92EF92DC
:100CD000FF920F931F93CF93DF93FF2400E8C7EB9E
:100CE000D4E0288039804C805D8035942794310190
:100CF00055944794640C751C2418350868827982D1
:100D00002C823D8228960A9561F700E4C7EBD4E077
:100D1000288039804884598435942794310155942A
:100D20004794640C751C24183508688279822886DB
:100D300039862C803D804C845D843594279455946D
:100D400047942C823D824E825F822C863D86519450
:100D500041945F084E865F8660960A95C9F680E2E8
:100D6000C7EBD4E042E85AE56EE775EA288039809F
:100D70004888598835942794310155944794640CD8
:100D8000751C2418350868827982288A398A8C88EB
:100D90009D882E893F899594879435952795840160
:100DA000021B130B280D391D950320010C034F1C4A
:100DB00010019C035F08300C411C5F1CD8035F08C6
:100DC000300C411C5F1CB50330012C036F1C10015B
:100DD000BC037F08300C611C7F1CDA037F08300CD9
:100DE000611C7F1C8C809D800E811F81959487944F
:100DF000159507951401240C351C841895082801B5
:100E0000460C571C061917092C823D824E825F82C0
:100E10008C8A9D8A0E8B1F8B28843984488C598C30
:100E20003594279455944794288639864A865B865C
:100E3000288E398E519441945F084A8E5B8E2C8D9A
:100E40003D8D8E8C9F8C959487943595279589013F
:100E5000080D191D28193909970320010E034F1C8D
:100E600010019E035F08300C411C5F1CF8035F08F3
:100E7000300C411C5F1CB50330012C036F1C1001AA
:100E8000BC037F08300C611C7F1CDA037F08300C28
:100E9000611C7F1C8C849D840E851F85959487948E
:100EA000159507951401240C351C84189508280104
:100EB000460C571C061917092C863D864E865F8600
:100EC0008C8E9D8E0E8F1F8FA0968A9509F04ECF27
:100ED00000E2C02EDD2408E0A02EE8E5F4E004E006
:100EE000B02E000FE02EA7EBB4E0ED01CC0DDD1D20
:100EF0002D903C9048805980359427943101559429
:100F00004794640C751C24183508288239827C9219
:100F10006E9214962496EA94088119812A813B8165
:100F2000459155916591759115022001049F10011D
:100F300014035F08300C411C5F1C50035F08300C29
:100F4000411C5F1C37023001269F201831084608DB
:100F5000570836035F1C301841085F0872035F1C96
:100F6000301841085F088D909D90959487941401E6
:100F7000840C951C241835082992399235022001D9
:100F8000249F100134035F08300C411C5F1C520386
:100F90005F08300C411C5F1C17023001069F200CBB
:100FA000311C461C571C16035F08300C411C5F1C8B
:100FB00070035F08300C411C5F1C6D907C90759431
:100FC00067941301240C351C641875083C922E920A
:100FD0009E928E92699279921496EA94D1F0EB14D3
:100FE00009F09ACF2D903C904880598035942794F1
:100FF000559447943201719461947F0829923992F3
:10100000699279923C922E9212964D925D92EA9458
:1010100083CFC73BDA0548F4DE01CC0DDD1DEB2C98
:10102000EE0CEC19FD09389663CFB6FC06C0BB0C7C
:10103000EB2CEE0CCC0CDD1C56CFDF91CF911F9129
:101040000F91FF90EF90DF90CF90BF90AF909F9067
:101050008F907F906F905F904F903F902F901124D2
:101060002F923F924F925F926F927F92FF920F93D7
:101070001F93CF93DF93A7EBB4E0C7EBD8E0FF2437
:1010800040E80D911D912D913D9111022001009F8D
:10109000100198035F08300C411C5F1C33023001C3
:1010A000229F200C311C461C571CBA035F08300CD1
:1010B000411C5F1C1127552051F01CE0E52DE03448
:1010C000F8F4440CEE1F440CEE1F1A95F8CF4420A0
:1010D00051F018E0E42DE03498F4330CEE1F330C9B
:1010E000EE1F1A95F8CF332051F014E0E32DE034D1
:1010F00038F4220CEE1F220CEE1F1A95F8CFE22DC9
:10110000FF27E859FD4F04911295010F09934A9565
:1011100009F0B7CFDF91CF911F910F91FF907F9092
:101120006F905F904F903F902F901124789407EB31
:1011300018E0F9E007331F0749F0F80161918F01CA
:1011400070E089819A810E946005F3CF89819A813C
:101150000E947605882309F425CD0F900F90DF912A
:10116000CF911F910F91FF90EF90DF90CF90BF90A4
:10117000AF909F908F907F906F905F904F903F9037
:101180002F9008950C94B3051F920F920FB60F92F3
:1011900011242F933F938F939F93AF93BF9380918D
:1011A000380990913909A0913A09B0913B093091E1
:1011B000370923E0230F2D3720F40196A11DB11D1F
:1011C00005C026E8230F0296A11DB11D2093370903
:1011D0008093380990933909A0933A09B0933B0959
:1011E00080913C0990913D09A0913E09B0913F0941
:1011F0000196A11DB11D80933C0990933D09A093D8
:101200003E09B0933F09BF91AF919F918F913F915C
:101210002F910F900FBE0F901F9018952FB7F89435
:10122000609138097091390980913A0990913B0990
:101230002FBF08953FB7F89480913C0990913D09E4
:10124000A0913E09B0913F0926B5A89B05C02F3F4C
:1012500019F00196A11DB11D3FBF6627782F892F78
:101260009A2F620F711D811D911D42E0660F771F3D
:10127000881F991F4A95D1F708958F929F92AF9238
:10128000BF92CF92DF92EF92FF926B017C010E949E
:101290001A094B015C01C114D104E104F104F1F01D
:1012A0000E946C0C0E941A09681979098A099B0925
:1012B000683E73408105910570F321E0C21AD108A0
:1012C000E108F10888EE880E83E0981EA11CB11C8D
:1012D000C114D104E104F10429F7DDCFFF90EF90B0
:1012E000DF90CF90BF90AF909F908F9008957894AB
:1012F00084B5826084BD84B5816084BD85B582601B
:1013000085BD85B5816085BDEEE6F0E080818160B8
:101310008083E1E8F0E010828081826080838081B8
:1013200081608083E0E8F0E0808181608083E1EB90
:10133000F0E0808184608083E0EBF0E08081816078
:101340008083EAE7F0E0808184608083808182602E
:101350008083808181608083808180688083109217
:10136000C10008958E3008F08E50877020910401DE
:1013700090E4299F90011124822B80937C0080911E
:101380007A00806480937A0080917A0086FDFCCF99
:10139000809178002091790090E0922B0895FC01D3
:1013A000818D228D90E0805C9F4F821B91098F730D
:1013B00099270895FC01918D828D981731F0828DC7
:1013C000E80FF11D858D90E008958FEF9FEF089550
:1013D000FC01918D828D981761F0828DDF01A80F3D
:1013E000B11D5D968C91928D9F5F9F73928F90E05F
:1013F00008958FEF9FEF08958CE69BE0892B49F0CD
:1014000080E090E0892B29F00E946C0B81110C94F4
:1014100000000895FC01848DDF01A80FB11DA35ABF
:10142000BF4F2C91848D90E001968F739927848F04
:10143000A689B7892C93A089B1898C9180648C93FB
:10144000938D848D981306C00288F389E02D8081E6
:101450008F7D80830895CF93DF93EC01888D88235F
:10146000C9F0EA89FB89808185FD05C0A889B98911
:101470008C9186FD0FC00FB607FCF5CF808185FFEC
:10148000F2CFA889B9898C9185FFEDCFCE010E945A
:101490000A0AE7CFDF91CF910895CF92DF92FF92B2
:1014A0000F931F93CF93DF931F92CDB7DEB76C01DD
:1014B00081E0D60158968C9358975B969C915B97E8
:1014C0005C968C915C97981307C05096ED91FC91B7
:1014D0005197808185FD2EC0F601038D10E00F5FCE
:1014E0001F4F0F731127F02EF601848DF81211C0D3
:1014F0000FB607FCF9CFD6015096ED91FC915197AC
:10150000808185FFF1CFC60169830E940A0A698143
:10151000EBCF838DE80FF11DE35AFF4F6083D601B7
:101520005B960C935B975296ED91FC91539780815B
:1015300080620CC0D6015696ED91FC91579760835E
:101540005096ED91FC91519780818064808381E079
:1015500090E00F90DF91CF911F910F91FF90DF905E
:10156000CF900895BF92CF92DF92EF92FF92CF93E8
:10157000DF93EC016A017B01B22EE889F98982E0F0
:101580008083411581EE580761057105A1F060E087
:1015900079E08DE390E0A70196010E94810C215033
:1015A00031094109510956954795379527952115D8
:1015B00080E1380798F0E889F989108260E874E8DA
:1015C0008EE190E0A70196010E94810C2150310923
:1015D000410951095695479537952795EC85FD8525
:1015E0003083EE85FF852083188EEC89FD89B082DB
:1015F000EA89FB89808180618083EA89FB89808117
:1016000088608083EA89FB89808180688083EA8999
:10161000FB8980818F7D8083DF91CF91FF90EF9058
:10162000DF90CF90BF9008951F920F920FB60F9248
:1016300011242F938F939F93EF93FF93E091500981
:10164000F09151098081E0915609F091570982FD8E
:1016500012C09081809159098F5F8F7320915A0930
:10166000821751F0E0915909F0E0E05CF64F958F58
:101670008093590901C08081FF91EF919F918F91D3
:101680002F910F900FBE0F901F9018951F920F92E1
:101690000FB60F9211242F933F934F935F936F9345
:1016A0007F938F939F93AF93BF93EF93FF9380E4C8
:1016B00099E00E940A0AFF91EF91BF91AF919F912B
:1016C0008F917F916F915F914F913F912F910F90EB
:1016D0000FBE0F901F90189580E499E00E94CF09EB
:1016E00021E0892B09F420E0822F0895109243090C
:1016F0001092420988EE93E0A0E0B0E080934409A4
:1017000090934509A0934609B093470981EF91E072
:10171000909341098093400985EC90E090934D09A6
:1017200080934C0984EC90E090934F0980934E098C
:1017300080EC90E0909351098093500981EC90E007
:10174000909353098093520982EC90E0909355094D
:101750008093540986EC90E0909357098093560942
:101760001092590910925A0910925B0910925C0963
:10177000089508950E9477090E94B90B0E943504CC
:10178000CCEFD9E00E9468042097E1F30E94FC09A5
:10179000F9CFCF92DF92EF92FF920F931F93CF93E7
:1017A000DF937C016A01EB0100E010E00C151D05E0
:1017B00071F06991D701ED91FC910190F081E02DDC
:1017C000C7010995892B19F00F5F1F4FEFCFC80193
:1017D000DF91CF911F910F91FF90EF90DF90CF900D
:1017E00008956115710581F0DB010D900020E9F786
:1017F000AD0141505109461B570BDC01ED91FC91A5
:101800000280F381E02D099480E090E008950C942B
:10181000F10B8F929F92AF92BF92DF92EF92FF9265
:101820000F931F93CF93DF93CDB7DEB7A1970FB67A
:10183000F894DEBF0FBECDBF7C01F42FD52ECB01B7
:1018400019A2223008F42AE08E010F5D1F4F822E6C
:10185000912CA12CB12C6F2F7D2DA50194010E94FC
:10186000810CF22FD32ECA01015011096A3014F4F1
:10187000E0E301C0E7E3E60FD801EC93232B242B30
:10188000252B49F7B801C7010E94F10BA1960FB6AD
:10189000F894DEBF0FBECDBFDF91CF911F910F91A6
:1018A000FF90EF90DF90BF90AF909F908F90089542
:1018B0002115310541F4DC01ED91FC910190F0819D
:1018C000E02D642F09940C94090C9A01462F50E0E6
:1018D00060E070E00C94580C089597FB072E16F406
:1018E000009407D077FD09D00E94A30C07FC05D017
:1018F0003EF4909581959F4F0895709561957F4F27
:101900000895A1E21A2EAA1BBB1BFD010DC0AA1F40
:10191000BB1FEE1FFF1FA217B307E407F50720F058
:10192000A21BB30BE40BF50B661F771F881F991FD3
:101930001A9469F760957095809590959B01AC011C
:10194000BD01CF010895AA1BBB1B51E107C0AA1F0F
:10195000BB1FA617B70710F0A61BB70B881F991F50
:101960005A95A9F780959095BC01CD010895EE0F89
:10197000FF1F0590F491E02D099418E0C4E1D8E030
:1019800004C0FE010E94B90C2296C631D107C9F7E6
:04199000F894FFCFF9
:101994008C781500014135353828252D446464358B
:1019A400261318283F441300261E3744441E0820DB
:1019B40025133B2B1B08261925413B260010180034
:1019C400331E1821131B00081B002B18251B2C2564
:1019D40029081E001B1B1926211900131B20101394
:1019E4000823101010001B00271E2620212B08108E
:1019F40021000019181E1B1908001300131E1310D0
:101A04001908101E231000131313082018260800A9
:101A14001E0000564D4450565F317C315F564D4494
:101A240050560D0A00564D4450435F005F564D44D6
:101A340050430D0A004572726F723A204174746506
:101A44006D707420746F20736574206120726561F9
:101A5400642D6F6E6C79207661726961626C6520A9
:101A64006F7220646174612074797065206E6F7484
:101A740020737570706F727465640D0A0000000045
:0E1A8400004D0AC90BCF09E809DA092B0A0048
:00000001FF
