:100000000C941D030C9445030C9445030C94450378
:100010000C9445030C9445030C9445030C94450340
:100020000C9445030C9445030C9445030C94450330
:100030000C9445030C9445030C9445030C94450320
:100040000C94DA070C9445030C942A0A0C945C0A6D
:100050000C9445030C9445030C9445030C94450300
:100060000C9445030C9445030000050014002D007A
:1000700050007C00B300F3003D019101EF015602F6
:10008000C7024103C5035204E90488053106E306AB
:100090009D0761082D09010ADE0AC30BB10CA60DEC
:1000A000A30EA80FB410C811E21204142D155C168B
:1000B0009217CE18101A581BA61CF91D521FAF20FC
:1000C00012227923E5245426C8274029BB2A392C3B
:1000D000BB2D3F2FC6304F32DA336835F6368738BE
:1000E000183AAB3B3E3DD13E6540F9418C431F453C
:1000F000B1464248D1495F4BEC4C764EFE4F84519D
:100100000753875403567D57F258645AD25B3B5DC0
:10011000A05E00605B61B16202644C659266D1676B
:100120000A693C6A686B8D6CAC6DC36ED36FDC7012
:10013000DC71D672C773B07491756A763A770278BB
:10014000C1787779247AC87A647BF57B7E7CFD7CE4
:10015000737DDF7D417E9A7EE97E2E7F6A7F9B7F65
:10016000C37FE17FF57FFF7FFF7FF57FE17FC37F67
:100170009B7F6A7F2E7FE97E9A7E417EDF7D737D45
:10018000FD7C7E7CF57B647BC87A247A7779C178A4
:1001900002783A776A769175B074C773D672DC715B
:1001A000DC70D36FC36EAC6D8D6C686B3C6A0A6992
:1001B000D16792664C650264B1625B610060A05ECB
:1001C0003B5DD25B645AF2587D5703568754075300
:1001D0008451FE4F764EEC4C5F4BD1494248B146BC
:1001E0001F458C43F9416540D13E3E3DAB3B183A3B
:1001F0008738F6366835DA334F32C6303F2FBB2D9D
:10020000392CBB2A4029C8275426E52479231222F9
:10021000AF20521FF91DA61C581B101ACE1892179A
:100220005C162D150414E212C811B410A80FA30E09
:10023000A60DB10CC30BDE0A010A2D0961089D074A
:10024000E30631068805E9045204C5034103C702E9
:100250005602EF0191013D01F300B3007C00500014
:100260002D001400050000000000080D10131516E5
:1002700018191B1C1D1E1E1F20212122232324248C
:10028000252526262627272828282929292A2A2AF3
:100290002B2B2B2B2C2C2C2C2D2D2D2D2E2E2E2E96
:1002A0002E2F2F2F2F2F3030303030313131313150
:1002B0003132323232323232333333333333333416
:1002C00034343434343434353535353535353535E5
:1002D00036363636363636363637373737373737B7
:1002E000373737383838383838383838383839398F
:1002F000393939393939393939393A3A3A3A3A3A68
:100300003A3A3A3A3A3A3A3B3B3B3B3B3B3B3B3B44
:100310003B3B3B3B3B3B3C3C3C3C3C3C3C3C3C3C23
:100320003C3C3C3C3C3C3D3D3D3D3D3D3D3D3D3D03
:100330003D3D3D3D3D3D3D3E3E3E3E3E3E3E3E3EE4
:100340003E3E3E3E3E3E3E3E3E3F3F3F3F3F3F3FC6
:100350003F3F3F3F3F3F3F3F3F3F3F3F3F3F4040AB
:100360004040404040404040F00FF81FF42FFC3F19
:10037000F24FFA5FF66FFE7FF18FF99FF5AFFDBF89
:10038000F3CFFBDFF7EFE007E817E427EC37E247AE
:10039000EA57E667EE77E187E997E5A7EDB7E3C7A8
:1003A000EBD7D00BD81BD42BDC3BD24BDA5BD66B14
:1003B000DE7BD18BD99BD5ABDDBBD3CBC003C813C0
:1003C000C423CC33C243CA53C663CE73C183C9931B
:1003D000C5A3CDB3B00DB81DB42DBC3DB24DBA5DB3
:1003E000B66DBE7DB18DB99DB5ADA005A815A4258E
:1003F000AC35A245AA55A665AE75A185A99590090B
:10040000981994299C3992499A5996699E799189AB
:100410008001881184218C3182418A5186618E71DC
:10042000700E781E742E7C3E724E7A5E766E60067A
:10043000681664266C3662466A56500A581A542A60
:100440005C3A524A4002481244224C32300C381C6A
:10045000342C2004281410084276FC30825A825A28
:10046000FC3042768A7DF9184276FC306E6A1D4770
:10047000825A825A1D476E6AFC304276F9188A7D8C
:10048000627F8C0C8A7DF9187D7A28254276FC30B3
:10049000E370573C6E6A1D47F2623451825A825AA9
:1004A0003451F2621D476E6A573CE370FC3042766D
:1004B00028257D7AF9188A7D8C0C627FD97F4806C1
:1004C000627F8C0C9D7EC8128A7DF9182A7C1A1FC7
:1004D0007D7A282585781F2B4276FC30B673BA3694
:1004E000E370573CCA6DCE416E6A1D47D066404CE2
:1004F000F2623451D75EF655825A825AF655D75E6B
:100500003451F262404CD0661D476E6ACE41CA6DCE
:10051000573CE370BA36B673FC3042761F2B8578B1
:1005200028257D7A1A1F2A7CF9188A7DC8129D7E9B
:100530008C0C627F4806D97FF67F2403D97F48065A
:10054000A77F6B09627F8C0C0A7FAB0F9D7EC81260
:100550001E7EE2158A7DF918E47C0C1C2A7C1A1F89
:100560005D7B24227D7A28258A79272885781F2B90
:100570006C77112E4276FC300575DF33B673BA36D0
:1005800055728D39E370573C5F6F173FCA6DCE418E
:10059000246C7B446E6A1D47A768B449D066404C02
:1005A000E964C04EF2623451EC609B53D75EF6555D
:1005B000B45C4358825A825A4358B45CF655D75EAD
:1005C0009B53EC603451F262C04EE964404CD066FB
:1005D000B449A7681D476E6A7B44246CCE41CA6D3E
:1005E000173F5F6F573CE3708D395572BA36B6735B
:1005F000DF330575FC304276112E6C771F2B857822
:1006000027288A7928257D7A24225D7B1A1F2A7C57
:100610000C1CE47CF9188A7DE2151E7EC8129D7EB2
:10062000AB0F0A7F8C0C627F6B09A77F4806D97FCE
:100630002403F67F45068C0A490611241FBECFEF1E
:10064000D8E0DEBFCDBF12E0A0E0B1E0E0E8FFE11E
:1006500002C005900D92AE38B107D9F727E0AEE899
:10066000B2E001C01D92A33EB207E1F716E0C8E375
:10067000D6E004C02297FE010E94AF0FC433D10719
:10068000C9F70E94D00A0C94B30F0C94000040EDFF
:1006900057E060E070E086E097E00E94780620E096
:1006A00032EC41E050E066E477E086E097E00E94BB
:1006B0008B0686E097E00E9475066DEF71E08091F1
:1006C0003707909138070E941D0B6AE070E080E0C8
:1006D00090E00E94530841E060E086E097E00E94CD
:1006E000F60626E040E052EC61E070E086E497E038
:1006F0000C94C8092F923F924F925F926F927F9213
:100700008F929F92AF92BF92CF92DF92EF92FF9221
:100710000F931F93CF93DF9385E10E94C80897FD45
:1007200003968C0115950795159507954AE050E0BD
:10073000B80186E497E00E94C30B0E551109023000
:10074000110508F48FC28AE090E0E6E8F4E097FD36
:100750001FC020917A0024FFFCCF25EF20937A0060
:10076000409178002091790050E0522B525026E0C1
:10077000440F551F2A95E1F720813181240F351F41
:100780002193319326E0E638F20719F70197DDCF80
:10079000808191816AE070E00E94630F61937193A0
:1007A00086E0E638F807A1F72F923F924F925F92CA
:1007B000FF920F931F93CF93DF93C6E8D4E0E8E650
:1007C000F0E0FF2440E0659175910881198197035D
:1007D00020010E034F1C10019E035F08300C411CCA
:1007E0005F1CF8035F08300C411C5F1C4992599252
:1007F0004A9549F7DF91CF911F910F91FF905F903C
:100800004F903F902F9011242F923F926F927F92A2
:10081000CF93DF93E8E6F3E048E7A591BB27AA0F63
:10082000BB1FAA57BB4F2D903C90C591DD27CC0F25
:10083000DD1FCA57DB4F688079807C926E922882D8
:1008400039824A9551F7DF91CF917F906F903F9019
:100850002F902F923F924F925F926F927F928F9242
:100860009F92AF92BF92CF92DF92EF92FF920F933F
:100870001F93CF93DF93FF2400E2E02EC6E8D4E07D
:10088000688079804A805B807594679443015594B1
:100890004794640C751C84189508AC80BD804E800C
:1008A0005F80B594A794650155944794A40CB51C3A
:1008B000C418D508688579854A845B8475956795E1
:1008C0008B0155944794640D751D041915098C8589
:1008D0009D854E845F84959587959C01559447949A
:1008E000840D951D24193509759467942301B594D9
:1008F000A7946A0C7B1C4A185B0895948794540152
:10090000D594C7948C0C9D1CAC18BD087595679543
:100910006B0195958795680F791FC81AD90A759448
:100920006794130175956795660E771E261A370A28
:1009300042E85AE51503C001049FB00114039F0962
:10094000700D811D9F1D509F700D811D9F1D9594E1
:1009500087948401880E991E081B190B559447949F
:10096000D201D594C7944C0C5D1CAC19BD0935035C
:10097000C001249FB00134039F09700D811D9F1D8C
:10098000529F700D811D9F1DB594A7946501A80EFF
:10099000B91EC81AD90A6992799289929992499294
:1009A0005992A992B9922992399209931993A993CC
:1009B000B993C992D992EA9409F062CF00E2C02EAD
:1009C000DD2406E0902EE8E5F4E000E1A02EBB2453
:1009D00004E0E02EA6E8B4E0ED01CA0DDB1D8E2C8C
:1009E0002D903C904880598035942794310155943E
:1009F0004794640C751C24183508299239927C920E
:100A00006E92AC0DBD1D1197EA94088119813C913D
:100A10002E91459155916591759115022001049F84
:100A2000100114035F08300C411C5F1C509F300CF8
:100A3000411C5F1C37023001269F200C311C461CD4
:100A4000571C36035F08300C411C5F1C729F300C32
:100A5000411C5F1C0E01CA19DB09288039803594BE
:100A600027943101640C751C24183508688279823A
:100A7000E0012992399217022001069F1001160306
:100A80005F08300C411C5F1C709F300C411C5F1CC8
:100A900035023001249F20183108460857083403D6
:100AA0005F1C301841085F08529F301841085F08EA
:100AB0000D01AA19BB092D903C9035942794310162
:100AC000640C751C241835087C926E92D0012D920E
:100AD0003C921297EA9409F098CFDE01AA19BB095B
:100AE0002D903C904880598035942794310155943D
:100AF0004794640C751C24183508288239827C922E
:100B00006E92C50196958795C80FD91FC638D9052D
:100B100040F4DE01CA0DDB1DE82CEA19FB0934960E
:100B20005FCF86FC06C0EA2CE6945601CC0CDD1C97
:100B300051CFDF91CF911F910F91FF90EF90DF90F8
:100B4000CF90BF90AF909F908F907F906F905F906D
:100B50004F903F902F9011242F923F924F925F928F
:100B60006F927F928F929F92FF920F931F93CF93DA
:100B7000DF93A6E8B4E0C6E8D6E0E6E8F6E04F0189
:100B8000FF2440E80D911D91980106C0F4010D91DC
:100B90001D91329122914F0111022001009F1001FD
:100BA00098035F08300C411C5F1C33023001229F08
:100BB000200C311C461C571CBA035F08300C411C2A
:100BC0005F1C1127552051F01CE0E52DE034F8F4AE
:100BD000440CEE1F440CEE1F1A95F8CF442051F040
:100BE00018E0E42DE03498F4330CEE1F330CEE1FC4
:100BF0001A95F8CF332051F014E0E32DE03438F4A7
:100C0000220CEE1F220CEE1F1A95F8CFE22DFF27C3
:100C1000E859FD4F04911295010F09934A9509F087
:100C2000B5CFDF91CF911F910F91FF909F908F9043
:100C30007F906F905F904F903F902F901124E8E845
:100C4000F6E0AAE8B3E0819190E08D939D9327E0D0
:100C5000E830F207C1F76AE873E08EE892E00E949C
:100C60008B0771CDDF91CF911F910F91FF90EF9086
:100C7000DF90CF90BF90AF909F908F907F906F90BC
:100C80005F904F903F902F9008958EE892E00C94E3
:100C900011078EE892E00C941A070F931F93CF93DD
:100CA000DF93EC01662359F00E94240869837A835C
:100CB0008B839C83DF91CF911F910F9108950E94A8
:100CC000240809811A812B813C81601B710B820BE6
:100CD000930B613271058105910530F763E070E097
:100CE00080E090E00E945308EACF60E00C944D064B
:100CF000FC0113AA14AA15AA16AA11821282138241
:100D00001482411551056105710521F0CB01BA012D
:100D10000C9453080895FB01BA01A901DC01D29695
:100D2000FC93EE93D19726E0CF010C94C8091F9352
:100D3000CF93DF93EC01162F6FE072E089A99AA997
:100D40000E941D0B4AE050E0612F89A99AA90E94D8
:100D5000E80B66E172E089A99AA90E941D0B62E383
:100D600070E080E090E0DF91CF911F910C945308E8
:100D70001F93CF93DF93EC01162F8D81882389F188
:100D800089A99AA9DC01ED91FC910480F581E02DFF
:100D90000995892BA9F307C02637310519F12835A4
:100DA000310509F41D8289A99AA9DC01ED91FC9114
:100DB0000480F581E02D09951816190694F489A987
:100DC0009AA9DC01ED91FC910680F781E02D09954F
:100DD0009C01332723363105F9F6612FCE010E949D
:100DE000970683E6DF91CF911F9108950F931F938C
:100DF000CF93DF931F92CDB7DEB78C01662349F006
:100E000081E0F801858360E0C80149830E94B8064B
:100E10004981F80145830F90DF91CF911F910F9188
:100E200008952CEFE1E0F1E0DC0101900D922A95AC
:100E3000E1F708950895CF92DF92EF92FF920F931A
:100E40001F93CF93DF938B01C0E0D0E0C12CD12C56
:100E50007601F801819191918F01889FB001899F5E
:100E6000700D700D1124882777FD8095982F0E94B2
:100E7000F10D9B01AC01C701B6010E94EE0C6B01A4
:100E80007C012196CE37D10521F7DF91CF911F91BB
:100E90000F91FF90EF90DF90CF900C940C0FAF92DA
:100EA000BF92CF92DF92EF92FF920F931F93CF9357
:100EB000DF935C01EB0100E010E0C12CD12C760146
:100EC000F501219131915F0189919991289FB0019C
:100ED000299F700D389F700D1124882777FD80950C
:100EE000982F0E94F10D9B01AC01C701B6010E9431
:100EF000EE0C6B017C010F5F1F4F0E37110501F7E0
:100F0000DF91CF911F910F91FF90EF90DF90CF90E5
:100F1000BF90AF9008958F929F92AF92BF92CF9261
:100F2000DF92EF92FF92CF93DF9300D000D0CDB746
:100F3000DEB77C016B01BC010E941B074B015C0109
:100F4000B601C7010E941B079B01AC0167E672E076
:100F500086E497E029833A834B835C830E941D0BD0
:100F6000B601C7010E944F076B017C0129813A81BC
:100F70004B815C81C501B4010E94A50E9B01AC01AF
:100F8000C701B6010E94560DAB01BC0122E030E062
:100F900086E497E00F900F900F900F90DF91CF9124
:100FA000FF90EF90DF90CF90BF90AF909F908F9089
:100FB0000C94DA0C1F920F920FB60F9211242F93FC
:100FC0003F938F939F93AF93BF9380913E079091F0
:100FD0003F07A0914007B091410730913D0723E0C2
:100FE000230F2D3720F40196A11DB11D05C026E861
:100FF000230F0296A11DB11D20933D0780933E074C
:1010000090933F07A0934007B09341078091420718
:1010100090914307A0914407B09145070196A11D07
:10102000B11D8093420790934307A0934407B09368
:101030004507BF91AF919F918F913F912F910F9055
:101040000FBE0F901F9018952FB7F89460913E0730
:1010500070913F0780914007909141072FBF0895FD
:101060003FB7F8948091420790914307A0914407BD
:10107000B091450726B5A89B05C02F3F19F00196F2
:10108000A11DB11D3FBF6627782F892F9A2F620FB0
:10109000711D811D911D42E0660F771F881F991FEA
:1010A0004A95D1F708958F929F92AF92BF92CF92B7
:1010B000DF92EF92FF926B017C010E9430084B019E
:1010C0005C01C114D104E104F104F1F00E94EC0CC4
:1010D0000E943008681979098A099B09683E7340A3
:1010E0008105910570F321E0C21AD108E108F108E9
:1010F00088EE880E83E0981EA11CB11CC114D10497
:10110000E104F10429F7DDCFFF90EF90DF90CF905D
:10111000BF90AF909F908F900895789484B582602F
:1011200084BD84B5816084BD85B5826085BD85B58B
:10113000816085BDEEE6F0E0808181608083E1E83A
:10114000F0E0108280818260808380818160808372
:10115000E0E8F0E0808181608083E1EBF0E0808175
:1011600084608083E0EBF0E0808181608083EAE747
:10117000F0E08081846080838081826080838081D0
:10118000816080838081806880831092C10008958F
:101190008E3008F08E5087702091000190E4299FD6
:1011A00090011124822B80937C0080917A008064CE
:1011B00080937A0080917A0086FDFCCF8091780040
:1011C0002091790090E0922B0895FC01818D228D71
:1011D00090E0805C9F4F821B91098F73992708953F
:1011E000FC01918D828D981731F0828DE80FF11DF1
:1011F000858D90E008958FEF9FEF0895FC01918D0C
:10120000828D981761F0828DDF01A80FB11D5D9668
:101210008C91928D9F5F9F73928F90E008958FEFD6
:101220009FEF089582E89AE0892B49F080E090E0F2
:10123000892B29F00E94820A81110C9400000895E4
:10124000FC01848DDF01A80FB11DA35ABF4F2C9163
:10125000848D90E001968F739927848FA689B78932
:101260002C93A089B1898C9180648C93938D848D0B
:10127000981306C00288F389E02D80818F7D8083DA
:101280000895CF93DF93EC01888D8823C9F0EA8914
:10129000FB89808185FD05C0A889B9898C9186FD6F
:1012A0000FC00FB607FCF5CF808185FFF2CFA8896C
:1012B000B9898C9185FFEDCFCE010E942009E7CF3F
:1012C000DF91CF910895CF92DF92FF920F931F93FA
:1012D000CF93DF931F92CDB7DEB76C0181E0D601CB
:1012E00058968C9358975B969C915B975C968C91E3
:1012F0005C97981307C05096ED91FC9151978081AF
:1013000085FD2EC0F601038D10E00F5F1F4F0F7398
:101310001127F02EF601848DF81211C00FB607FCCC
:10132000F9CFD6015096ED91FC915197808185FFC0
:10133000F1CFC60169830E9420096981EBCF838DBB
:10134000E80FF11DE35AFF4F6083D6015B960C93C3
:101350005B975296ED91FC915397808180620CC00F
:10136000D6015696ED91FC91579760835096ED917A
:10137000FC91519780818064808381E090E00F90A0
:10138000DF91CF911F910F91FF90DF90CF90089543
:10139000BF92CF92DF92EF92FF92CF93DF93EC0157
:1013A0006A017B01B22EE889F98982E080834115C8
:1013B00081EE580761057105A1F060E079E08DE3E9
:1013C00090E0A70196010E94770F21503109410951
:1013D00051095695479537952795211580E138078E
:1013E00098F0E889F989108260E874E88EE190E06D
:1013F000A70196010E94770F215031094109510937
:101400005695479537952795EC85FD853083EE8574
:10141000FF852083188EEC89FD89B082EA89FB89DB
:10142000808180618083EA89FB89808188608083F4
:10143000EA89FB89808180688083EA89FB898081D1
:101440008F7D8083DF91CF91FF90EF90DF90CF90E1
:10145000BF9008951F920F920FB60F9211242F93F1
:101460008F939F93EF93FF93E0915607F091570767
:101470008081E0915C07F0915D0782FD12C0908150
:1014800080915F078F5F8F7320916007821751F003
:10149000E0915F07F0E0EA5BF84F958F80935F077C
:1014A00001C08081FF91EF919F918F912F910F90BB
:1014B0000FBE0F901F9018951F920F920FB60F92AC
:1014C00011242F933F934F935F936F937F938F9349
:1014D0009F93AF93BF93EF93FF9386E497E00E94AF
:1014E0002009FF91EF91BF91AF919F918F917F91D3
:1014F0006F915F914F913F912F910F900FBE0F9081
:101500001F90189586E497E00E94E50821E0892B5A
:1015100009F420E0822F089510924907109248079D
:1015200088EE93E0A0E0B0E080934A0790934B07E9
:10153000A0934C07B0934D0784E792E09093470740
:101540008093460785EC90E0909353078093520771
:1015500084EC90E0909355078093540780EC90E0E2
:10156000909357078093560781EC90E0909359072A
:101570008093580782EC90E090935B0780935A0722
:1015800086EC90E090935D0780935C0710925F0774
:1015900010926007109261071092620708950895F3
:1015A0000E948D080E94CF0A0E944703C2E1D9E041
:1015B0000E947A032097E1F30E941209F9CFCF929B
:1015C000DF92EF92FF920F931F93CF93DF937C01F3
:1015D0006A01EB0100E010E00C151D0571F0699146
:1015E000D701ED91FC910190F081E02DC7010995A3
:1015F000892B19F00F5F1F4FEFCFC801DF91CF91FB
:101600001F910F91FF90EF90DF90CF90089561159B
:10161000710581F0DB010D900020E9F7AD0141502B
:101620005109461B570BDC01ED91FC910280F381BF
:10163000E02D099480E090E008950C94070BDC0104
:10164000ED91FC910190F081E02D09946CE172E044
:101650000C94070B8F929F92AF92BF92DF92EF9202
:10166000FF920F931F93CF93DF93CDB7DEB7A19770
:101670000FB6F894DEBF0FBECDBF7C01F42FD52E80
:10168000CB0119A2223008F42AE08E010F5D1F4F12
:10169000822E912CA12CB12C6F2F7D2DA5019401B0
:1016A0000E94770FF22FD32ECA01015011096A3020
:1016B00014F4E0E301C0E7E3E60FD801EC93232B39
:1016C000242B252B49F7B801C7010E94070BA196CF
:1016D0000FB6F894DEBF0FBECDBFDF91CF911F9143
:1016E0000F91FF90EF90DF90BF90AF909F908F9001
:1016F0000895CF92DF92EF92FF920F931F93CF93B3
:10170000DF93EC016A017B012115310579F4E88151
:10171000F9810190F081E02D642FDF91CF911F912D
:101720000F91FF90EF90DF90CF9009942A30310510
:10173000E9F477FF1AC06DE20E941F0B8C01442769
:101740005527BA014C195D096E097F092AE0CE01BF
:101750000E942A0B800F911FDF91CF911F910F9153
:10176000FF90EF90DF90CF9008952AE0B701A60197
:10177000CE01DF91CF911F910F91FF90EF90DF90FD
:10178000CF900C942A0B0F931F93CF93DF93EC0110
:101790009A01AB01662757FD6095762F0E94790B61
:1017A0008C01CE010E94260B800F911FDF91CF91FB
:1017B0001F910F9108952115310541F4DC01ED9140
:1017C000FC910190F081E02D642F09940C942A0B78
:1017D0009A01462F50E060E070E00C94DB0B4F92D2
:1017E0005F926F927F928F929F92AF92BF92CF92B1
:1017F000DF92EF92FF920F931F93CF93DF93EC0151
:101800006A017B01B22E9A01AB01C701B6010E94A9
:101810004A0F882319F060E872E027C026013701DB
:10182000E89477F82FEF3FEF4FE75FE7C301B2018E
:101830000E944A0F81110DC02FEF3FEF4FE75FE786
:10184000C301B2010E94520D18161CF464E872E044
:101850000CC02FEF3FEF4FE75FE4C701B6010E94D6
:10186000A10E1816ACF468E872E0CE01DF91CF91BA
:101870001F910F91FF90EF90DF90CF90BF90AF90AE
:101880009F908F907F906F905F904F900C94070B7C
:101890002FEF3FEF4FE75FECC701B6010E94520DFB
:1018A00087FDE1CF20E030E0A901C701B6010E9429
:1018B000520D87FF0AC06DE2CE010E941F0B8C0102
:1018C000F7FAF094F7F8F09402C000E010E0A12CD1
:1018D00060E070E080E09FE3AB1441F020E030E096
:1018E00040E251E40E94560DA394F6CF9B01AC0157
:1018F000C701B6010E94EE0C6B017C010E94C30D72
:101900002B013C010E94EF0D9B01AC01C701B60108
:101910000E94ED0C6B017C012AE0B301A201CE0113
:101920000E942A0B080F191FBB2039F06CE872E0E7
:10193000CE010E94070B080F191F7B2C772041F165
:1019400020E030E040E251E4C701B6010E94A50E5C
:101950006B017C010E94BE0D4B01AA2497FCA09450
:10196000BA2C2AE030E0B501A401CE010E94790B27
:10197000080F191FC501B4010E94F10D9B01AC01B4
:10198000C701B6010E94ED0C6B017C017A94D6CFA1
:10199000C801DF91CF911F910F91FF90EF90DF90E1
:1019A000CF90BF90AF909F908F907F906F905F90FF
:1019B0004F9008950F931F93CF93DF93EC010E94F4
:1019C000EF0B8C01CE010E94260B800F911FDF913F
:1019D000CF911F910F91089508955058BB27AA27C2
:1019E0000ED075C166D130F06BD120F031F49F3F3D
:1019F00011F41EF45BC10EF4E095E7FB51C1E92F31
:101A000077D180F3BA17620773078407950718F038
:101A100071F49EF58FC10EF4E0950B2EBA2FA02D18
:101A20000B01B90190010C01CA01A0011124FF278B
:101A3000591B99F0593F50F4503E68F11A16F04086
:101A4000A22F232F342F4427585FF3CF4695379585
:101A50002795A795F0405395C9F77EF41F16BA0B4A
:101A6000620B730B840BBAF09150A1F0FF0FBB1FF8
:101A7000661F771F881FC2F70EC0BA0F621F731F41
:101A8000841F48F4879577956795B795F7959E3F9E
:101A900008F0B3CF9395880F08F09927EE0F97952C
:101AA00087950895D9D008F481E008950CD00FC12E
:101AB00007D140F0FED030F021F45F3F19F0F0C0C4
:101AC000511139C1F3C014D198F39923C9F35523A7
:101AD000B1F3951B550BBB27AA2762177307840721
:101AE00038F09F5F5F4F220F331F441FAA1FA9F3D7
:101AF00033D00E2E3AF0E0E830D091505040E695C9
:101B0000001CCAF729D0FE2F27D0660F771F881F29
:101B1000BB1F261737074807AB07B0E809F0BB0B18
:101B2000802DBF01FF2793585F4F2AF09E3F51053C
:101B300068F0B6C000C15F3FECF3983EDCF38695D9
:101B400077956795B795F7959F5FC9F7880F911DB2
:101B50009695879597F90895E1E0660F771F881F9E
:101B6000BB1F621773078407BA0720F0621B730B51
:101B7000840BBA0BEE1F88F7E095089504D06894A3
:101B8000B111D9C00895BCD088F09F5790F0B92FFB
:101B90009927B751A0F0D1F0660F771F881F991FC2
:101BA0001AF0BA95C9F712C0B13081F0C3D0B1E0D4
:101BB0000895C0C0672F782F8827B85F39F0B93FE4
:101BC000CCF3869577956795B395D9F73EF49095C4
:101BD0008095709561957F4F8F4F9F4F0895E89442
:101BE00009C097FB3EF490958095709561957F4F65
:101BF0008F4F9F4F9923A9F0F92F96E9BB27939513
:101C0000F695879577956795B795F111F8CFFAF422
:101C1000BB0F11F460FF1BC06F5F7F4F8F4F9F4F53
:101C200016C0882311F096E911C0772321F09EE8B1
:101C3000872F762F05C0662371F096E8862F70E017
:101C400060E02AF09A95660F771F881FDAF7880FF1
:101C50009695879597F90895990F0008550FAA0B47
:101C6000E0E8FEEF16161706E807F907C0F01216AF
:101C70001306E407F50798F0621B730B840B950BB2
:101C800039F40A2661F0232B242B252B21F4089507
:101C90000A2609F4A140A6958FEF811D811D0895A4
:101CA00097F99F6780E870E060E008959FEF80EC0F
:101CB000089500240A9416161706180609060895B2
:101CC00000240A9412161306140605060895092E18
:101CD0000394000C11F4882352F0BB0F40F4BF2B87
:101CE00011F460FF04C06F5F7F4F8F4F9F4F0895C7
:101CF00057FD9058440F551F59F05F3F71F04795BD
:101D0000880F97FB991F61F09F3F79F087950895A1
:101D1000121613061406551FF2CF4695F1DF08C0C0
:101D2000161617061806991FF1CF869571056105DD
:101D300008940895E894BB2766277727CB0197F985
:101D400008958ADF08F48FEF08950BD0C0CFB1DF7C
:101D500028F0B6DF18F0952309F0A2CFA7CF112401
:101D6000EACFC6DFA0F3959FD1F3950F50E0551F42
:101D7000629FF001729FBB27F00DB11D639FAA27E0
:101D8000F00DB11DAA1F649F6627B00DA11D661F2F
:101D9000829F2227B00DA11D621F739FB00DA11D50
:101DA000621F839FA00D611D221F749F3327A00D0A
:101DB000611D231F849F600D211D822F762F6A2FA6
:101DC00011249F5750408AF0E1F088234AF0EE0F2B
:101DD000FF1FBB1F661F771F881F91505040A9F738
:101DE0009E3F510570F05CCFA6CF5F3FECF3983E6D
:101DF000DCF3869577956795B795F795E7959F5F9F
:101E0000C1F7FE2B880F911D9695879597F9089538
:101E100011F40EF44BCF42C073DFD0F39923D9F302
:101E2000CEF39F57550B87FF47D00024A0E640EA2A
:101E3000900180585695979528F4805C660F771F1F
:101E4000881F20F026173707480730F4621B730BF2
:101E5000840B202931294A2BA69517940794202515
:101E600031254A2758F7660F771F881F20F026175D
:101E70003707480730F4620B730B840B200D311DBC
:101E8000411DA09581F7B901842F9158880F96952F
:101E900087950895E1DE880B990B08959F3F31F0F7
:101EA000915020F4879577956795B795880F911D88
:101EB0009695879597F9089591505040660F771F32
:101EC000881FD2F7089597FB072E16F4009407D0C9
:101ED00077FD09D00E94990F07FC05D03EF490953C
:101EE00081959F4F0895709561957F4F0895A1E268
:101EF0001A2EAA1BBB1BFD010DC0AA1FBB1FEE1F84
:101F0000FF1FA217B307E407F50720F0A21BB30BCE
:101F1000E40BF50B661F771F881F991F1A9469F74A
:101F200060957095809590959B01AC01BD01CF01A6
:101F30000895AA1BBB1B51E107C0AA1FBB1FA61710
:101F4000B70710F0A61BB70B881F991F5A95A9F762
:101F500080959095BC01CD010895EE0FFF1F05906F
:101F6000F491E02D099416E0C8E3D6E004C0FE0128
:101F70000E94AF0F2296CA33D107C9F7F894FFCF5A
:101F80000143002A002500320025002D002E004FBD
:101F9000006F006E00440021001B001E003B005B30
:101FA0000059001E001B0023001E0034004700469D
:101FB000001300190000002B0033005500520020D0
:101FC00000260010000000370047004700190026D7
:101FD000002300130021001E001300000000002158
:101FE00000190013001B001B001E0010001B001B2B
:101FF0000018002500130000001800280021001917
:10200000001B002A00130013002700250000001BFE
:10201000002100080023002D0025001300080008FF
:1020200000250013001900100013001800190010FB
:10203000000000000028002B0023000000230018EF
:10204000001300000010000000000013001E00003C
:10205000001800190000001B0000002B00180000F1
:1020600000080029001B001B0008001300080008DE
:1020700000190023001E00100008000800564D44FF
:1020800050565F317C315F564D4450560D0A005614
:102090004D4450435F005F564D4450430D0A004588
:1020A00072726F723A20417474656D707420746F2F
:1020B00020736574206120726561642D6F6E6C7988
:1020C000207661726961626C65206F722064617450
:1020D000612074797065206E6F7420737570706FF5
:1020E000727465640D0A00436F7353696D3A200082
:1020F000000000006309DF0AE508FE08F008410956
:0E2100006E616E00696E66006F7666002E00DE
:00000001FF
